:1000000078C2000097C2000095C200000FC4000033
:1000100024C400008FC200008DC200008BC200000B
:1000200089C2000087C2000085C2000083C20000B0
:1000300081C200007FC200007DC200007BC20000C0
:1000400079C2000077C2000075C2000073C20000D0
:1000500071C200006FC200006DC200000C94291430
:1000600069C2000067C2000065C2000063C20000F0
:1000700061C200005FC200005DC200005BC2000000
:1000800059C2000057C2000055C2000053C2000010
:1000900051C200004FC200004DC200004BC2000020
:1000A00049C2000047C2000045C2000043C2000030
:1000B00041C200003FC200003DC200003BC2000040
:1000C00039C2000037C2000035C2000033C2000050
:1000D00031C200002FC200002DC200002BC2000060
:1000E00029C200008D07CA07050842087F08BC081E
:1000F000F908360975094A0C2E0CE60B120C8E0B0A
:10010000680DBA0BE60B570B680D680D680D720B86
:10011000680D8E0B700D5D0C680D680D680D680D17
:10012000680D680D680D460B680D680D680D570B5E
:10013000680D720B680D9B0C680D680D680D680DDD
:10014000680D680D680D680D680D680D680D680D07
:10015000680D680D680D7C0C680D680D680D680DE4
:10016000680D680D680D5D0C680D680D680D460B17
:10017000680D680D680DFB0C680D680D680D680D45
:10018000680D680D680D680D680D680D680D680DC7
:10019000680D680D680D680D680D680D680D680DB7
:1001A000680D680D680D680D680D680D680D680DA7
:1001B000680D680D680DCB0C680D680D680D680D35
:1001C000680D680D680D680D680D680D680D680D87
:1001D000680D680D680D9B0C680D680D680D680D45
:1001E000680D680D680D7C0C680D680D680D680D54
:1001F000680D680D680D490D4A0C680D4A0C680DB4
:10020000680D680D680D680D680D680D680D680D46
:10021000680D680D680D680D680D680D680D680D36
:10022000680D680D680D680D680D680D680D680D26
:10023000680D680D680D680D680D680D680D680D16
:10024000680D680D680D680D680D680D680D680D06
:10025000680D680D680D680D680D680D680D680DF6
:10026000680D680D680D680D680D680D680D680DE6
:10027000680D680D680D2A0D4A0C680D680D680D33
:10028000680D680D680D680D680D680D680D680DC6
:10029000680D680D680D680D680D680D680D680DB6
:1002A000680D680D680D680D680D680D680D680DA6
:1002B000680D680D680DFB0C680D680D680D680D04
:1002C000680D680D680D680D680D680D680D680D86
:1002D000680D680D680D700D640E4C0E0C0E340E1A
:1002E000BC0D640FE40D0C0E8D0D640F640F640FD4
:1002F000A40D640FBC0D6C0F770E640F640F640FB8
:10030000640F640F640F640F800D640F640F640F3B
:100310008D0D640FA40D640FAD0E640F640F640F98
:10032000640F640F640F640F640F640F640F640F35
:10033000640F640F640F640F920E640F640F640FF8
:10034000640F640F640F640F770E640F640F640F03
:10035000800D640F640F640F030F640F640F640F4C
:10036000640F640F640F640F640F640F640F640FF5
:10037000640F640F640F640F640F640F640F640FE5
:10038000640F640F640F640F640F640F640F640FD5
:10039000640F640F640F640FD80E640F640F640F52
:1003A000640F640F640F640F640F640F640F640FB5
:1003B000640F640F640F640FAD0E640F640F640F5D
:1003C000640F640F640F640F920E640F640F640F68
:1003D000640F640F640F640F490F640E640F640EA2
:1003E000640F640F640F640F640F640F640F640F75
:1003F000640F640F640F640F640F640F640F640F65
:10040000640F640F640F640F640F640F640F640F54
:10041000640F640F640F640F640F640F640F640F44
:10042000640F640F640F640F640F640F640F640F34
:10043000640F640F640F640F640F640F640F640F24
:10044000640F640F640F640F640F640F640F640F14
:10045000640F640F640F640F2E0F640E640F640F3B
:10046000640F640F640F640F640F640F640F640FF4
:10047000640F640F640F640F640F640F640F640FE4
:10048000640F640F640F640F640F640F640F640FD4
:10049000640F640F640F640F030F640F640F640F25
:1004A000640F640F640F640F640F640F640F640FB4
:1004B000640F640F640F640F6C0F33112C132C1333
:1004C0002C13541184112C132C132C132C132C13B8
:1004D0002C13B711D611E711F7110F1227122C1395
:1004E0002C132C132C13601284129A12AF12CC12FC
:1004F000E91211241FBECFEFD1E2DEBFCDBF00E075
:100500000CBF12E0A0E0B2E0EAEAF1E300E00BBFCA
:1005100002C007900D92A838B107D9F723E0A8E8E8
:10052000B2E001C01D92A535B207E1F70E94A81400
:100530000C94D31865CD80E480937C0084E880938C
:100540007A008CE291E09093DB028093DA020895C6
:10055000806480937C00EAE7F0E08081806480839F
:10056000808184FFFDCFEAE7F0E0808180618083B5
:100570008091780090917900089580E480937C00C8
:10058000EBE7F0E0808188608083EAE7F0E080813B
:1005900080648083808184FFFDCFEAE7F0E0808182
:1005A00080618083EBE7F0E08081877F80838091AA
:1005B00078009091790008950F931F93CF930CEEDC
:1005C00012E0C0E08C2FC4DFF801929382938F0178
:1005D000CF5FC830B9F7CF911F910F9108958091E7
:1005E0008802811116C0E8DFECEDF2E0A9E8B2E084
:1005F0006CEE72E080E0880F419151912D913D9118
:100600002417350708F48160E617F707A1F78093F0
:10061000D9020895CF93DF93E9EAF2E0C9EBD2E083
:10062000A9E8B2E049EB52E0219131918991999189
:10063000820F931F969587958D939D93E417F507E9
:1006400099F740E169E872E088E18CD0DF91CF91C1
:100650000895CF93DF93ECEDF2E0A9EBB2E02CEE3E
:1006600032E0ED018191919189939993E217F3071B
:10067000C9F7E9EAF2E0C9E8D2E049EB52E021919A
:1006800031918D919D91820F931F969587958993B6
:100690009993E417F50799F7DF91CF910895CF93D8
:1006A000DF93ACEDB2E0E9EAF2E02CEE32E0EF01EC
:1006B0008D919D9189939993A217B307C9F7C9EBBF
:1006C000D2E0A9E8B2E049EB52E021913191899161
:1006D0009991820F931F969587958D939D93E4171B
:1006E000F50799F7DF91CF91089540E169E872E04D
:1006F00088E160C00895249A1092EE021092ED02F3
:100700001092EC0208952C9A08952C9808958091E7
:10071000EC02882371F08091ED029091EE02019736
:100720009093EE028093ED02892B19F41092EC0263
:10073000ECCF08959093EE028093ED0281E08093D8
:10074000EC02E1CF0895F999FECF90E092BD81BD12
:1007500060BD8FB78F778FBFFA9AF99A8FB780688D
:100760008FBF08950F931F93CF93DF93611571058A
:1007700071F0442361F0C82F8B01D42FD80FF801FA
:1007800061918F018C2FDFDFCF5FCD13F8CFDF9129
:10079000CF911F910F910895F999FECF9FB79F7741
:1007A0009FBF90E092BD81BDF89A8FB780688FBFE0
:1007B00080B508950F931F93CF93DF93C82FD42F45
:1007C0006115710539F4842F90E00E94B217BC01C5
:1007D000892B61F0DD2351F08B01DC0F8C2FDCDFE6
:1007E000F80181938F01CF5FCD13F8CFDF91CF91C7
:1007F0001F910F91089580EA8093690010926A001A
:100800008CE08DBB8CBB8AB1837F8AB98EB18C6042
:100810008EB91092F0021092EF021092F102109233
:10082000F3021092F2021092F40208951F920F92B6
:100830000FB60F9211248F939F938091EF029091A6
:10084000F00201969093F0028093EF029F918F91B6
:100850000F900FBE0F901F9018951F920F920FB61A
:100860000F9211248F939F938091F2029091F30243
:1008700001969093F3028093F2029F918F910F90D3
:100880000FBE0F901F901895259A80E880938000E6
:1008900082E180938100109285001092840083E1B0
:1008A0008093870088E88093860085E080938900A4
:1008B0008CED8093880010928B0010928A00109229
:1008C0008D0010928C00089526EFAC012403C00126
:1008D000259F900D11242091060230910702820F6E
:1008E000931F9093890080938800089520910602B9
:1008F00030910702281B390B309389002093880020
:1009000008956091060288E21EDF6091070289E285
:100910001ACF089589E240DF109206028093070201
:1009200088E23ADF2091060230910702A901480FC0
:10093000511DCA0150930702409306028C3B52E0BE
:10094000950738F48CED95E09093070280930602AA
:1009500008958D3F984030F08CED95E0909307021C
:10096000809306020895A1E0B1E08C91807F8C9382
:10097000E2E0F1E080818F6080838C918F708C93B6
:100980008081806F80838FE08093FA028093FC02E5
:10099000809300038093FD0280EF80930103809396
:1009A000F8028093FF028093F90208954091FD02BE
:1009B000409300039091FC029093FD025091F90244
:1009C0005093FF022091F8022093F90280910001D8
:1009D000382F307F3093F8028F708093FC022313FE
:1009E00004C0521302C050930103981304C049136A
:1009F00002C04093FA0208952091FA0230E0A90162
:100A000002C0559547958A95E2F7CA0151E08527BE
:100A1000817008958091010382958F70089580916F
:100A2000F6020895479A80E18A95F1F7479887E59D
:100A300092E00197F1F700C00000089598B18F701F
:100A4000907F892B88B90895CF93C82F82958F7096
:100A5000F5DFE8DF8C2FF2DFE5DFCF910895CF934C
:100A6000C82F459882958F70E9DFDCDF8C2FE6DF99
:100A7000D9DF459ACF9108954598611102C08058F9
:100A800001C08054EFEDFEE23197F1F700C00000A5
:100A9000E6DF8FE99FE00197F1F700C000000895BD
:100AA00081E0DDDF8FE39CE90197F1F700C00000F2
:100AB000089587B18F6087B987B1806A87B93E9AF8
:100AC00088B1807F88B92FEF89EF90E02150804076
:100AD0009040E1F700C0000045988FE19EE4019747
:100AE000F1F700C0000046988FE19EE40197F1F70E
:100AF00000C0000083E0B3DF8FE39CE90197F1F7CA
:100B000000C000008FDF8FE39CE90197F1F700C080
:100B1000000088DF8FE39CE90197F1F700C0000037
:100B200081DF8FE39CE90197F1F700C0000082E0CC
:100B300096DF8FE39CE90197F1F700C0000088E29F
:100B400083DF8FE39CE90197F1F700C000008CE0A0
:100B500086DF8FE39CE90197F1F700C0000086E093
:100B60007EDF8FE39CE90197F1F700C0000098DF7A
:100B700060E080E081CF0895805D66CF0895CF93D7
:100B8000DF93EC01459A8881882329F021965CDF68
:100B900089918111FCCF4598DF91CF9108950F93F2
:100BA0001F93CF93DF93AC018A30910508F069C0A1
:100BB0009C01329522952F7023273F702327A7E4AD
:100BC000B3E00E948F179695879596958795969591
:100BD000879560E177E2869F9001879F300D969F11
:100BE000300D1124421B530B9A01369527953695EB
:100BF000279536952795A5ECB0E20E948F17929520
:100C000082958F7089279F70892768EE73E0869F91
:100C10009001879F300D969F300D1124421B530B7E
:100C20009A013695279536952795ABE7B4E10E9452
:100C30008F179695879564E6689F9001699F300DA0
:100C40001124421B530B9A01ADECBCEC0E948F1790
:100C50009695879596958795969587959C01220FF1
:100C6000331F880F991F880F991F880F991F820FB4
:100C7000931F242F281B822F7FDF89E092E07FDFE4
:100C8000E2C08436910508F06DC09C013295229532
:100C90002F7023273F702327A7E4B3E00E948F170C
:100CA00096958795969587959695879560E177E2D5
:100CB000869F9001879F300D969F300D1124421B17
:100CC000530B9A0136952795369527953695279596
:100CD000A5ECB0E20E948F17929582958F708927BC
:100CE0009F70892768EE73E0869F9001879F300D83
:100CF000969F300D1124421B530B9A013695279570
:100D000036952795ABE7B4E10E948F178C011695B5
:100D1000079524E6209FC001219F900D11248A0190
:100D2000081B190B9801ADECBCEC0E948F17EC016D
:100D3000D695C795D695C795D695C7958C2F1CDFA8
:100D4000CE01880F991FCC0FDD1FCC0FDD1FCC0FFC
:100D5000DD1FC80FD91F802F8C1B0EDF8AE092E0A9
:100D60000EDF71C0883E23E0920708F06CC09C0142
:100D7000329522952F7023273F702327A7E4B3E0F5
:100D80000E948F1796958795969587959695879546
:100D900060E177E2869F9001879F300D969F300D2E
:100DA0001124421B530B9A013695279536952795AA
:100DB00036952795A5ECB0E20E948F178C0112950D
:100DC00002950F7001271F70012728EE33E0029F64
:100DD000C001039F900D129F900D11248A01081BE2
:100DE000190B98013695279536952795ABE7B4E111
:100DF0000E948F17EC01D695C7958C2FBDDE24E697
:100E00002C9FC0012D9F900D1124081B190B9801D8
:100E1000ADECBCEC0E948F17EC01D695C795D6952A
:100E2000C795D695C7958C2FA7DECE01880F991F41
:100E3000CC0FDD1FCC0FDD1FCC0FDD1FC80FD91F5E
:100E4000802F8C1B99DEDF91CF911F910F91089518
:100E50008FEF81B982B9EAE0F1E080818863808315
:100E6000EBE0F1E08081877C80830895809582B9F2
:100E70000895882331F0EBE0F1E080818061808388
:100E800005C0EBE0F1E080818F7E8083662331F046
:100E9000EBE0F1E080818062808305C0EBE0F1E06F
:100EA00080818F7D8083442331F0EBE0F1E080810D
:100EB000886080830895EBE0F1E08081877F808304
:100EC0000895CF93DF9380E090E0FEDC60E070E077
:100ED00080E090E00E940A151092500310924F0398
:100EE00010924E0310924D0380E395E79093170301
:100EF000809316031092320381E0809333038ADDDE
:100F000090E0FC013797E930F10508F02DC2882701
:100F1000EE58FF4F8F4F0C948717109231031092A9
:100F2000300384E690E090932D0380932C0342E3FA
:100F300050E050930703409306039093110380936E
:100F4000100328EC30E030934303209342036AE01F
:100F500070E0709327036093260310921D03109294
:100F60001C0368E770E070930B0360930A035093CF
:100F700023034093220390932F0380932E033093F7
:100F80002903209328038DE290E090931B03809324
:100F90001A031AC2109231031092300324E630E093
:100FA00030932D0320932C0382E390E0909307036A
:100FB00080930603309311032093100348EC50E014
:100FC00050934303409342036AE070E07093270319
:100FD0006093260310921D0310921C0368E770E0D3
:100FE00070930B0360930A0390932303809322036F
:100FF00030932F0320932E0350932903409328030B
:1010000090931B0380931A03DFC110923103109257
:10101000300384E690E090932D0380932C0342E309
:1010200050E050930703409306039093110380937D
:10103000100328EC30E030934303209342036AE02E
:1010400070E0709327036093260310921D031092A3
:101050001C0368E770E070930B0360930A035093DE
:1010600023034093220390932F0380932E03309306
:1010700029032093280387E390E090931B03809338
:101080001A03A2C1109231031092300384E690E05B
:1010900090932D0380932C0342E350E05093070379
:1010A00040930603909311038093100328EC30E0E3
:1010B00030934303209342036AE070E07093270368
:1010C0006093260310921D0310921C0368E770E0E2
:1010D00070930B0360930A035093230340932203FE
:1010E00090932F0380932E0330932903209328039A
:1010F0008CE390E090931B0380931A0365C11092D8
:1011000031031092300384E690E090932D03809396
:101110002C0342E350E0509307034093060390935F
:1011200011038093100328EC30E0309343032093A5
:1011300042036AE070E070932703609326031092E5
:101140001D0310921C0368E770E070930B0360931B
:101150000A03509323034093220390932F03809319
:101160002E03309329032093280381E490E0909389
:101170001B0380931A0328C110923103109230038D
:1011800084E690E090932D0380932C0342E350E09B
:101190005093070340930603909311038093100329
:1011A00028EC30E030934303209342036AE070E080
:1011B000709327036093260310921D0310921C0363
:1011C00068E770E070930B0360930A035093230366
:1011D0004093220390932F0380932E03309329038F
:1011E0002093280386E490E090931B0380931A03D6
:1011F000EBC0109231031092300384E690E090939C
:101200002D0380932C0342E350E050930703409357
:101210000603909311038093100328EC30E0309381
:101220004303209342036AE070E0709327036093C6
:10123000260310921D0310921C0368E770E0709360
:101240000B0360930A03509323034093220390936C
:101250002F0380932E0330932903209328038BE4DC
:1012600090E090931B0380931A03AEC01092310359
:101270001092300386E990E090932D0380932C0325
:1012800084E690E090930703809306039093110304
:101290008093100328EC30E0309343032093420303
:1012A0004AE050E0509327034093260310921D0319
:1012B00010921C0348E750E050930B0340930A033D
:1012C00042E350E0509323034093220390932F0373
:1012D00080932E03309329032093280380E590E028
:1012E00090931B0380931A036FC0109231031092E6
:1012F00030038AE090E090932D0380932C0380E5E7
:1013000090E0909307038093060388EC90E090931D
:1013100011038093100324E630E0309343032093BD
:1013200042032CE030E030932703209326031092F1
:101330001D0310921C0324E130E030930B03209333
:101340000A0326E930E0309323032093220390938D
:101350002F0380932E039093290380932803909367
:101360001B0380931A0330C0109231031092300394
:1013700010922D0310922C03109207031092060373
:101380001092110310921003109243031092420323
:10139000109227031092260310921D0310921C0333
:1013A00010920B0310920A0310922303109222034F
:1013B00010922F0310922E031092290310922803EB
:1013C00010921B0310921A0320911A0330911B03F1
:1013D00030930503209304031092390310923803CD
:1013E00030932B0320932A0381E090E090931F0316
:1013F00080931E0330930D0320930C0383E090E051
:1014000090932503809324034AE5429FC001439FA4
:10141000900D1124E4E6F0E0BF010E947417709370
:1014200041036093400387E090E090933B038093F7
:101430003A0345E5429FC001439F900D1124BF012F
:101440000E9474177093350360933403CFE0D0E0AB
:10145000D0932103C093200340E5429FC001439FE6
:10146000900D1124BF010E947417709313036093B1
:101470001203D0933703C09336034BE4429FC0015D
:10148000439F900D1124BF010E94741770930303B2
:1014900060930203C1E1D0E0D0931903C093180315
:1014A00041E4429FC001439F900D1124BF010E945F
:1014B000741770933F0360933E03D0933D03C09332
:1014C0003C03DF91CF9108959091D902937C81E004
:1014D000933C09F080E00895F7DF81110DC0809101
:1014E000D902982F987F983F49F0982F9F7181E0FB
:1014F0009F3129F080E0089580E0089582E008950A
:101500000F931F93CF93DF93EC018B01DDD9DD2384
:1015100014F5D195C195D109FE01E05FFD4F208101
:10152000209FC001219F900D112424E630E0B901D5
:101530000E947417FB01CE5BDD4F4881409FC001C4
:10154000419F900D1124B9010E947417CB01BF0176
:101550000E940A1525C0209729F4B801C8010E94ED
:101560000A151EC0FE01EE5BFD4F2081209FC001C9
:10157000219F900D112424E630E0B9010E947417D8
:10158000FB01C05FDD4F4881409FC001419F900D2E
:101590001124B9010E947417CB01BF010E940A15E2
:1015A000DF91CF911F910F9108950F931F93CF93C8
:1015B000DF93EC018B019AD9DD234CF5882799271D
:1015C0008C1B9D0B6AE070E00E9474179B01FB016D
:1015D000E05FFD4F4081409FC001419F900D11246D
:1015E000E4E6F0E0BF010E947417EB01D901AE5BA5
:1015F000BD4F2C91209FC001219F900D1124BF0150
:101600000E947417CB01BE010E940A152CC02097BE
:1016100029F4B801C8010E940A1525C0CE016AE06C
:1016200070E00E9474179B01FB01EE5BFD4F40814F
:10163000409FC001419F900D1124E4E6F0E0BF01FE
:101640000E947417EB01D901A05FBD4F2C91209F20
:10165000C001219F900D1124BF010E947417CB017E
:10166000BE010E940A15DF91CF911F910F9108953D
:101670008091D90290E0813F910508F029C2FC01D8
:101680008827E558FF4F8F4F0C948717609104030C
:1016900070910503809138039091390331DF1092E6
:1016A00046031092320381E08093330308958091C2
:1016B00032038D3F34F460E070E082EE9FEF20CF84
:1016C000089560912A0370912B0380911E039091DD
:1016D0001F0316DF1092460381E08093320380934C
:1016E00033030895809132038D3F34F460E070E05D
:1016F00082EE9FEF05CF089560910C0370910D036A
:101700008091240390912503FBDE1092460382E032
:101710008093320381E080933303089580913203F4
:101720008D3F34F460E070E082EE9FEFE9CE0895E3
:1017300080914703909148030C9750F087E090E028
:10174000C3D86CEE7FEF8CEE9FEF0E940A1509C0A4
:10175000609140037091410380913A0390913B0363
:10176000CFDE81E08093460383E0809332031092C2
:1017700033030895809132038D3F34F460E070E0CC
:1017800082EE9FEFBDCE089580914703909148036C
:101790000C9750F08FE090E097D86CEE7FEF8CEED6
:1017A0009FEF0E940A1509C06091340370913503C0
:1017B0008091200390912103A3DE81E08093460372
:1017C00084E08093320310923303089580913203B2
:1017D0008D3F34F460E070E082EE9FEF91CE08958B
:1017E00080914703909148030C9750F08FE090E070
:1017F0006BD86CEE7FEF8CEE9FEF0E940A1509C04C
:101800006091120370911303809136039091370316
:1018100077DE81E08093460385E080933203109267
:1018200033030895809132038D3F34F460E070E01B
:1018300082EE9FEF65CE08956091020370910303DD
:1018400080911803909119035BDE81E08093460339
:1018500086E080933203109233030895809132031F
:101860008D3F34F460E070E082EE9FEF49CE089542
:1018700060913E0370913F0380913C0390913D0342
:101880003FDE81E0809346031092330386E080932D
:1018900032030895809132038C3F34F460E070E0AD
:1018A00082EE9FEF2DCE089585300CF419C160E0D3
:1018B00070E08EE190E024CE089580913203843070
:1018C00034F060E070E08EE190E01ACE089560910F
:1018D0002A0370912B0380911E0390911F03919511
:1018E0008195910962DE109246038FEF8093320357
:1018F00081E080933303089580913203843034F083
:1019000060E070E08EE190E0FBCD089560910C0303
:1019100070910D03809124039091250391958195F9
:101920009109EEDD109246038EEF8093320381E041
:1019300080933303089580913203843034F060E063
:1019400070E08EE190E0DCCD0895809147039091A6
:1019500048030C9758F089EF9FEF0E9464046CEEE7
:101960007FEF8CEE9FEF0E940A150CC06091400340
:101970007091410380913A0390913B039195819539
:101980009109BEDD81E0809346038DEF80933203A1
:1019900010923303089580913203843034F060E074
:1019A00070E08EE190E0ACCD089580914703909176
:1019B00048030C9758F081EF9FEF0E9464046CEE8F
:1019C0007FEF8CEE9FEF0E940A150CC060913403EC
:1019D0007091350380912003909121039195819519
:1019E00091098EDD81E0809346038CEF8093320372
:1019F00010923303089580913203843034F060E014
:101A000070E08EE190E07CCD089580914703909145
:101A100048030C9750F081EF9FEF0E94640460E050
:101A200070E080E090E0F6D70CC0609112037091F6
:101A30001303809136039091370391958195910915
:101A40005FDD81E0809346038BEF80933203109239
:101A50003303089580913203843034F060E070E005
:101A60008EE190E04DCD08956091020370910303E3
:101A7000809118039091190391958195910940DD0A
:101A800081E0809346038AEF809332031092330300
:101A9000089580913203843034F060E070E08EE18C
:101AA00090E02ECD089560913E0370913F038091A8
:101AB0003C0390913D0391958195910921DD81E051
:101AC000809346038AEF8093320310923303089584
:101AD00081E08093330360E070E080E090E09AC79B
:101AE0000895BC018091D90290E0813F910508F0F2
:101AF000EBC1FC018827E459FE4F8F4F0C948717E8
:101B00008091380390913903FBDC109246031092C8
:101B1000320381E0809333030895809132038D3F37
:101B200034F460E070E082EE9FEFEACC089580919B
:101B30001E0390911F03E4DC1092460381E0809322
:101B40003203809333030895809132038D3F34F440
:101B500060E070E082EE9FEFD3CC08958091240383
:101B600090912503CDDC1092460382E080933203EE
:101B700081E0809333030895809132038D3F34F4E4
:101B800060E070E082EE9FEFBBCC08958091470348
:101B9000909148030C9750F087E090E00E94640415
:101BA0006CEE7FEF8CEE9FEF35D705C080913A0346
:101BB00090913B03A5DC81E08093460383E0809312
:101BC0003203109233030895809132038D3F34F431
:101BD00060E070E082EE9FEF93CC08958091470320
:101BE000909148030C9750F08FE090E00E946404BD
:101BF0006CEE7FEF8CEE9FEF0DD705C08091200338
:101C0000909121037DDC81E08093460384E0809302
:101C10003203109233030895809132038D3F34F4E0
:101C200060E070E082EE9FEF6BCC089580914703F7
:101C3000909148030C9750F08FE090E00E9464046C
:101C40006CEE7FEF8CEE9FEFE5D605C080913603FA
:101C50009091370355DC81E08093460385E08093C3
:101C60003203109233030895809132038D3F34F490
:101C700060E070E082EE9FEF43CC089580911803FE
:101C8000909119033DDC81E08093460386E08093C8
:101C90003203109233030895809132038D3F34F460
:101CA00060E070E082EE9FEF2BCC089580913C03C2
:101CB00090913D0325DC81E080934603109233032D
:101CC00086E0809332030895809132038C3F34F490
:101CD00060E070E082EE9FEF13CC089585300CF445
:101CE000FBC060E070E08EE190E00ACC0895809146
:101CF0003203843034F060E070E08EE190E000CC9C
:101D0000089580911E0390911F03919581959109EB
:101D10004CDC109246038FEF8093320381E0809376
:101D20003303089580913203843034F060E070E032
:101D30008EE190E0E5CB08958091240390912503F6
:101D4000919581959109DCDB109246038EEF80938B
:101D5000320381E08093330308958091320384300D
:101D600034F060E070E08EE190E0CACB089580919D
:101D70004703909148030C9750F089EF9FEF0E9422
:101D800064046CEE7FEF8CEE9FEF44D608C0809128
:101D90003A0390913B03919581959109B1DB81E0E4
:101DA000809346038DEF809332031092330308959E
:101DB00080913203843034F060E070E08EE190E096
:101DC0009FCB089580914703909148030C9750F062
:101DD00081EF9FEF0E9464046CEE7FEF8CEE9FEF2B
:101DE00019D608C080912003909121039195819587
:101DF000910986DB81E0809346038CEF8093320368
:101E000010923303089580913203843034F060E0FF
:101E100070E08EE190E074CB08958091470390913B
:101E200048030C9750F081EF9FEF0E94640460E03C
:101E300070E080E090E0EED508C08091360390918C
:101E400037039195819591095BDB81E0809346038F
:101E50008BEF809332031092330308958091320305
:101E6000843034F060E070E08EE190E049CB08957A
:101E7000809118039091190391958195910940DB08
:101E800081E0809346038AEF8093320310923303FC
:101E9000089580913203843034F060E070E08EE188
:101EA00090E02ECB089580913C0390913D03919555
:101EB0008195910925DB81E0809346038AEF809329
:101EC000320310923303089581E08093330360E07E
:101ED00070E080E090E09EC508950F931F93CF932C
:101EE000DF938B011092450310924403EC01892B80
:101EF00049F0C801F6DD80914403909145038C17A9
:101F00009D07B8F3DF91CF911F910F9108950F9323
:101F10001F93CF93DF938C011092500310924F03C5
:101F2000C2E3D0E0D1DA882339F010925003109246
:101F30004F0385E190E0B2C0C833D10509F465C014
:101F40003CF4C233D10511F1C333D105A1F1A4C0D2
:101F5000CA33D10529F00CF468C0EB9751F09CC04E
:101F600080914403909145038C32914008F46DC0F8
:101F700075C02091280330912903809144039091EA
:101F800045038217930708F470C07FC080914F0308
:101F900090915003C29760F460910A0370910B0313
:101FA00080911C0390911D0398DFC3E3D0E0BACF6A
:101FB000C8015EDBB7CF8091D902811110C080913A
:101FC000260390912703B80191958195910998DA9C
:101FD0001092500310924F03C8E3D0E0A3CF40E02B
:101FE00061E080E00E943907C80142DB80914F0325
:101FF000909150038938934108F494CF1092500384
:1020000010924F038BE090E049C08091D902882361
:102010000CF088CF1092500310924F03B80180E06B
:1020200090E06EDAC9E3D0E07DCF109245031092C4
:1020300044038091D9028F7009F474CF1092500339
:1020400010924F03CAE3D0E06DCFC80111DB80913D
:102050004403909145038C329140B8F310924503AC
:1020600010924403CBE3D0E05DCF80912E0390919A
:102070002F03FEDA20914403309145038091280319
:10208000909129032817390780F310924503109285
:1020900044038BE090E002C08BE090E0DF91CF91B1
:1020A0001F910F9108950F931F93CF93DF938C018E
:1020B00084E690E00E949A03CCE3D0E005DA811137
:1020C00089C0C234D10509F447C03CF4CC33D105F2
:1020D00019F1CD33D10561F180C0C434D10531F09F
:1020E0000CF445C0C534D10551F077C0809144034C
:1020F00090914503883C910508F445C04DC020915E
:10210000280330912903809144039091450382175D
:10211000930708F448C057C060910A0370910B03FD
:1021200080911C0390911D03D8DECDE3D0E0C6CF93
:102130008091D90281110DC0B80180912603909140
:102140002703DED984E690E00E949A03C2E4D0E03F
:10215000B5CFC8018DDAB2CF8091D90280FFAECF62
:10216000B80180E090E0CCD9C3E4D0E0A7CF1092D2
:102170004503109244038091D902807F09F49ECFD9
:10218000C4E4D0E09BCFC80173DA809144039091FE
:102190004503883C9105B8F310924503109244031F
:1021A000C5E4D0E08BCF80912E0390912F0360DAAD
:1021B0002091440330914503809128039091290395
:1021C0002817390780F310924503109244038BE0DF
:1021D00090E005C085E190E002C08BE090E0DF91E7
:1021E000CF911F910F9108956F927F928F929F923E
:1021F000AF92BF92CF92DF92EF92FF920F931F9315
:10220000CF93DF93EC011092500310924F03109282
:1022100045031092440341E060E081E00E943907E9
:1022200003E110E00F2EFFE16F2EF02D712CCC2476
:10223000C394D12C0F2EF8E1AF2EF02DB12C689461
:10224000EE24E1F8F12C0F2EF7E18F2EF02D912CDA
:10225000F8017397EC31F10508F0FEC18827E35AC5
:10226000FD4F8F4F54C660913003709131038091C0
:102270002C0390912D0331DE2091440330914503CE
:1022800080912C0390912D032817390708F31CD94E
:102290008111DECF21D98111DBCF1092450310923D
:1022A0004403082D192DD4CFCE011BDC80914403AB
:1022B000909145038938934108F0D1C10DD9882305
:1022C00039F2813091F0823009F0C2CFF0921503DB
:1022D000E092140384E690E00E949A031092500367
:1022E00010924F030A2D1B2DB3CFD0921503C0922D
:1022F000140384E690E00E949A0310925003109217
:102300004F030A2D1B2DA4CFBE01CE0183D3809194
:1023100014039091150381309105B1F0029709F0F3
:1023200097CF8091D90281110AC08DED9FEF0E9455
:102330006404BE0180E090E06DD3062D172D10924D
:10234000500310924F0384CF8091D90281110AC0AB
:1023500083E290E00E94640460E070E0CE015AD312
:1023600009E210E01092500310924F0371CF8DEDEF
:102370009FEF0E946404BE0180E090E04BD3809107
:10238000D902982F9C7339F01092500310924F038A
:1023900003E210E05DCF8370833009F059CF1092D3
:1023A000500310924F0300E210E052CF8DED9FEFEB
:1023B0000E946404BE0180E090E02CD38091D90299
:1023C0008F70813009F044CF01E210E041CF8DEDF4
:1023D0009FEF0E946404BE0180E090E01BD38091D7
:1023E000D9028F7009F034CF02E210E031CF8DEDC9
:1023F0009FEF0E946404BE0180E090E00BD38091C7
:10240000D9028C7309F424CF1092500310924F0319
:10241000109245031092440303E210E019CF8DEDB2
:102420009FEF0E946404BE0180E090E0F3D28091AF
:10243000D9028C7309F40CCF1092500310924F0301
:10244000109245031092440304E210E001CF109271
:102450004503109244038CE291E00E949A0380911C
:10246000440390914503883C910548F4CE0139DB43
:102470008091440390914503883C9105B8F31092F4
:102480004503109244038091420390914303892BAA
:1024900081F0809110039091110323DB209144037C
:1024A00030914503809142039091430328173907E7
:1024B00080F310924C0310924B038BE090E0D1C05C
:1024C00040E060E081E00E94390783E290E00E94F2
:1024D000640460E070E0CE019DD28091D902982F13
:1024E0009C7339F01092500310924F030DE210E0EC
:1024F000AFCE807C803C09F0ABCE1092500310929E
:102500004F030AE210E0A4CE40E061E080E00E94C8
:10251000390783E290E00E94640460E070E0CE013D
:1025200079D28091D902807F803809F091CE0BE278
:1025300010E08ECE41E060E080E00E94390783E247
:1025400090E00E94640460E070E0CE0163D280916C
:10255000D902807F09F07CCE0CE210E079CE41E018
:1025600060E081E00E94390783E290E00E94640409
:1025700060E070E0CE014ED28091D9028C7309F4F4
:1025800067CE1092500310924F03109245031092A1
:1025900044030DE210E05CCE41E060E081E00E9487
:1025A000390783E290E00E94640460E070E0CE01AD
:1025B00031D28091D9028C7309F44ACE1092500323
:1025C00010924F0310924503109244030EE210E064
:1025D0003FCE41E061E081E00E943907109245035F
:1025E000109244038CE291E00E949A03809144038C
:1025F00090914503883C910548F4CE0172DA8091B0
:10260000440390914503883C9105B8F3109245032B
:10261000109244038091420390914303892B81F0EF
:1026200080911003909111035CDA20914403309162
:10263000450380914203909143032817390780F3A3
:1026400010924C0310924B0340E060E080E00E9447
:1026500039078BE090E005C08BE090E002C084E693
:1026600090E0DF91CF911F910F91FF90EF90DF905D
:10267000CF90BF90AF909F908F907F906F90089574
:102680000E946107C0E00DE01BE0DCE0CB3009F404
:102690005AC038F4C13041F180F0C23009F0D4C0E2
:1026A00035C0CD3009F498C008F480C0C53109F4B4
:1026B000A9C0C43609F0C8C0B2C00E940F0581305D
:1026C00071F484E690E00E949A032FEF89E698E186
:1026D000215080409040E1F700C0000005C083E039
:1026E0000E94FC04882349F30E940F05882329F0E7
:1026F00083E00E94FC048823B9F3109250031092E7
:102700004F0310924E0310924D0306C080914F0369
:1027100090915003892B51F480E090E00E94640472
:1027200060E070E080E090E075D1F0CF84E690E06A
:102730000E949A031092500310924F0310924E037E
:1027400010924D0310C020914D0330914E038091A3
:102750001603909117038217930728F410925003E1
:1027600010924F0363C00E94640A882329F01092DC
:10277000500310924F0346C00E946C0A813041F012
:10278000823061F41092500310924F03CD2F07C096
:102790001092500310924F03C02F01C0C12F80919F
:1027A0001A0390911B030E94380B70CF0E94640A99
:1027B000882329F01092500310924F0323C0809178
:1027C000220390912303A3DBC82F10925003109291
:1027D0004F03109233035ACF0E94640A882329F0D2
:1027E0001092500310924F030DC0809122039091DC
:1027F000230359DCC82F1092500310924F031092FC
:10280000330344CF8091060390910703EDDCC82F7A
:102810001092500310924F031092330337CF8091E0
:102820004F0390915003843F914020F480E090E06A
:1028300058D9F5CF60E070E080E090E0EBD080E028
:1028400090E00E946404EBCF1092500310924F036B
:102850007ACF1F920F920FB60F9211240BB60F92E0
:102860002F933F934F935F936F937F938F939F9398
:10287000AF93BF93EF93FF9386E086BDE4D20E94AF
:1028800087030E94D6040E94EF028091D9020E9421
:102890003607FF91EF91BF91AF919F918F917F91FB
:1028A0006F915F914F913F912F910F900BBE0F90C1
:1028B0000FBE0F901F90189580E880BF0E944404BF
:1028C00076D0A8D20E949B020E947B030E94280718
:1028D0000E94B3040E94FB030E948A0480E090E0FF
:1028E0000E9464040E9475030C9459050895CF93C7
:1028F000DF930E94BD02EC0160E083E00E943C0592
:1029000084E68C9F90018D9F300D1124369527957C
:10291000A1EABFEB04D3880F892F881F990B9195EB
:102920000E94CF050DC084E190E00E949A032FEF32
:1029300081EE94E0215080409040E1F700C000001B
:102940000E94BD028C32914070F3DF91CF910895C7
:10295000B3DF789460E070E080E090E05BD081E0ED
:102960008093080284E190E00E949A0360E083E093
:102970000E943C0584E792E00E94BF0561E082E08E
:102980000E943C058CE792E00E94BF052FEF8DE38B
:1029900099E4215080409040E1F700C000000E947F
:1029A0005005A5DF72D06CDE81E090E008958DB116
:1029B000846C8DB98DB188638DB984B1876084B919
:1029C00085B1876085B989EA8093900082E0809321
:1029D000910010929500109294001092970010921E
:1029E0009600109299001092980010929B001092FD
:1029F0009A0010929D0010929C000895813011F46D
:102A0000729A089572980895813011F4769A089513
:102A1000769808950F931F93CF93DF93EC018B016A
:102A200077231CF081E0EADF05C0119501951109BB
:102A300080E0E4DFDD231CF081E0E6DF05C0D19516
:102A4000C195D10980E0E0DF0F3F110519F014F0C6
:102A50000FEF10E0CF3FD10519F014F0CFEFD0E029
:102A6000112314F400E010E01093990000939800F3
:102A7000DD2314F4C0E0D0E0D0939B00C0939A0013
:102A8000DF91CF911F910F910895CF93DF93CCEDFC
:102A9000D2E0B8C10E940A05823009F491C028F43E
:102AA000882361F08130E9F179C1843009F4F9C0FB
:102AB00008F4E7C0853009F445C170C140E060E02A
:102AC00081E00E94390780E00E94FC04882331F0F5
:102AD0000E944F0384E190E00E949A0381E00E94EB
:102AE000FC04882331F00E94290384E690E00E94D0
:102AF0009A0382E00E94FC04882331F00E940A03BA
:102B00008CE291E00E949A0383E00E94FC048823F7
:102B100009F478C10E940A038CE291E00E949A03B2
:102B200071C140E061E080E00E94390781E00E94CD
:102B3000FC04882361F060E070E086E09FEF6ADFCC
:102B40008FE39CE90197F1F700C000005BC180E0D2
:102B50000E94FC04882361F060E070E08AEF90E05E
:102B600059DF8FE39CE90197F1F700C000004AC1EB
:102B700083E00E94FC04882361F066E07FEF80E040
:102B800090E048DF8FE39CE90197F1F700C0000077
:102B900039C182E00E94FC04882361F06AEF70E092
:102BA00080E090E037DF8FE39CE90197F1F700C008
:102BB000000028C160E070E080E090E02BDF22C1DF
:102BC00041E060E080E00E94390782E00E94FC045E
:102BD0008823B9F0809106029091070202979093A2
:102BE00007028093060280E090E00E9464049FEF59
:102BF00020E782E0915020408040E1F700C00000D3
:102C000001C181E00E94FC048823B9F08091060292
:102C1000909107020296909307028093060280E04B
:102C200090E00E9464049FEF20E782E091502040F2
:102C30008040E1F700C00000E5C080E00E94FC0495
:102C4000811106C083E00E94FC04882309F4DAC0E5
:102C50000E9481049FEF23ED80E39150204080404B
:102C6000E1F700C0000088EC90E00E949A039FEF1B
:102C700023EC89E0915020408040E1F700C0000043
:102C8000C1C040E061E081E00E94390760E080E07F
:102C90000E943C058091EF029091F0020E94CF05C6
:102CA000B1C041E061E080E00E9439070E94500518
:102CB00060E080E00E943C058E859F850E94CF05E4
:102CC00060E084E00E943C058C859D850E94CF05D4
:102CD00060E088E00E943C058A859B850E94CF05C4
:102CE00060E08CE00E943C05888599850E94CF05B4
:102CF00061E080E00E943C058E819F810E94CF05AB
:102D000061E084E00E943C058C819D810E94CF059A
:102D100061E088E00E943C058A819B810E94CF058A
:102D200061E08CE00E943C05888199810E94CF057A
:102D30009FEF21EE84E0915020408040E1F700C0F9
:102D4000000060C041E060E081E00E94390782E05D
:102D50000E94FC04882371F083E290E00E946404E6
:102D60009FEF20E782E0915020408040E1F700C0D3
:102D7000000048C081E00E94FC04882309F442C09E
:102D80008DED9FEF0E9464049FE722E382E0915063
:102D900020408040E1F700C0000034C040E060E027
:102DA00080E00E94390780E00E94FC04882339F00B
:102DB0001092080288EC90E00E949A0323C083E0FE
:102DC0000E94FC04882339F01092080288EC90E0FD
:102DD0000E949A0317C081E00E94FC04882339F006
:102DE0001092080288EC90E00E949A030BC082E0E7
:102DF0000E94FC04882331F01092080288EC90E0D5
:102E00000E949A0380910802813009F443CEDF9139
:102E1000CF91089510924E0310924D0310924C03DF
:102E200010924B03109245031092440310925003EA
:102E300010924F0314BC83E085BD86E086BD81E01F
:102E400080936E00089580914F03909150030196F6
:102E50009093500380934F038091440390914503D6
:102E60000196909345038093440380914D03909184
:102E70004E03019690934E0380934D038091460339
:102E800081110AC080914B0390914C03019690935D
:102E90004C0380934B0315C0813099F410924C037E
:102EA00010924B03809147039091480301978A3019
:102EB0009105A8F48AE090E090934803809347033B
:102EC000089580914B0390914C038D32914058F0BE
:102ED00081E590E090934803809347030895909391
:102EE000480380934703089597FB072E16F4009438
:102EF00006D077FD08D022D007FC05D03EF490958F
:102F000081959F4F0895709561957F4F0895EE0FBD
:102F1000FF1F881F8BBF0790F691E02D1994A29F89
:102F2000B001B39FC001A39F700D811D1124911D9D
:102F3000B29F700D811D1124911D0895AA1BBB1B0A
:102F400051E107C0AA1FBB1FA617B70710F0A61BA9
:102F5000B70B881F991F5A95A9F780959095BC01CA
:102F6000CD0108950F931F93CF93DF938230910586
:102F700010F482E090E0E0915303F091540320E0DC
:102F800030E0A0E0B0E0309719F14081518102813A
:102F9000138148175907C8F08417950769F41097EB
:102FA00031F012960C93129713961C9327C000933E
:102FB00053031093540322C02115310519F0421711
:102FC000530718F49A01BD01EF01DF01F801DBCFCF
:102FD00021153105F9F0281B390B2430310580F417
:102FE0008A819B816115710521F0FB0193838283A6
:102FF00004C09093540380935303FE01329644C05F
:10300000FE01E20FF31F819391932250310939831E
:1030100028833AC02091510330915203232B41F46D
:103020002091020230910302309352032093510306
:1030300020910002309101022115310541F42DB794
:103040003EB74091040250910502241B350BE091DC
:103050005103F0915203E217F307A0F42E1B3F0B2C
:103060002817390778F0AC014E5F5F4F24173507FA
:1030700048F04E0F5F1F50935203409351038193CA
:10308000919302C0E0E0F0E0CF01DF91CF911F917A
:103090000F910895CF93DF93009709F481C0FC014D
:1030A000329713821282A0915303B0915403109768
:1030B00081F420813181820F931F2091510330913F
:1030C00052032817390751F5F0935203E093510347
:1030D00067C0ED0120E030E0CE17DF0740F44A8101
:1030E0005B819E0141155105F1F0EA01F5CFD383D3
:1030F000C28340815181840F951FC817D90759F4A5
:1031000088819981840F951F0296918380838A819B
:103110009B81938382832115310529F4F093540315
:10312000E09353033DC0E901FB83EA834991599140
:10313000C40FD51FEC17FD0761F480819181840FC6
:10314000951F0296E90199838883828193819B83ED
:103150008A83E0E0F0E012968D919C91139700979E
:1031600019F0FD01DC01F7CF8D919C9111979D0124
:103170002E5F3F4F820F931F2091510330915203D6
:103180002817390769F4309729F4109254031092E4
:10319000530302C013821282B0935203A0935103CF
:0A31A000DF91CF910895F894FFCF5E
:1031AA00000055032000DC0501202000310030001A
:1031BA00646566676768696A6B6C6D6E6F7070715B
:1031CA0072737475767778797A7B7C7D7F80818259
:1031DA0083848687888A8B8C8E8F91939496989A0B
:1031EA009C9E6463626161605F5E5D5C5B5A595874
:1031FA005857565554535251504F4E4D4C4B4948BF
:10320A00474645444241403E3D3C3A3937353432DF
:10321A00302E2C2A454955204D4352004549552EFA
:08322A004544552E564E0000EC
:00000001FF
